{
  "_format": "hh-sol-artifact-1",
  "contractName": "Village",
  "sourceName": "contracts/Village.sol",
  "abi": [
    {
      "inputs": [
        {
          "internalType": "string",
          "name": "_metadataURI",
          "type": "string"
        },
        {
          "internalType": "address",
          "name": "creator",
          "type": "address"
        }
      ],
      "stateMutability": "nonpayable",
      "type": "constructor"
    },
    {
      "inputs": [
        {
          "internalType": "address",
          "name": "owner",
          "type": "address"
        }
      ],
      "name": "OwnableInvalidOwner",
      "type": "error"
    },
    {
      "inputs": [
        {
          "internalType": "address",
          "name": "account",
          "type": "address"
        }
      ],
      "name": "OwnableUnauthorizedAccount",
      "type": "error"
    },
    {
      "anonymous": false,
      "inputs": [
        {
          "indexed": true,
          "internalType": "uint256",
          "name": "characterId",
          "type": "uint256"
        },
        {
          "indexed": true,
          "internalType": "address",
          "name": "characterAddress",
          "type": "address"
        },
        {
          "indexed": false,
          "internalType": "string",
          "name": "name",
          "type": "string"
        },
        {
          "indexed": false,
          "internalType": "string",
          "name": "symbol",
          "type": "string"
        },
        {
          "indexed": false,
          "internalType": "string",
          "name": "charMetadata",
          "type": "string"
        },
        {
          "indexed": true,
          "internalType": "address",
          "name": "village",
          "type": "address"
        },
        {
          "indexed": false,
          "internalType": "address[]",
          "name": "parents",
          "type": "address[]"
        },
        {
          "indexed": false,
          "internalType": "uint256",
          "name": "timestamp",
          "type": "uint256"
        }
      ],
      "name": "CharacterAdded",
      "type": "event"
    },
    {
      "anonymous": false,
      "inputs": [
        {
          "indexed": true,
          "internalType": "uint256",
          "name": "characterId",
          "type": "uint256"
        },
        {
          "indexed": true,
          "internalType": "address",
          "name": "from",
          "type": "address"
        },
        {
          "indexed": true,
          "internalType": "address",
          "name": "to",
          "type": "address"
        },
        {
          "indexed": false,
          "internalType": "address",
          "name": "characterAddress",
          "type": "address"
        },
        {
          "indexed": false,
          "internalType": "uint256",
          "name": "timestamp",
          "type": "uint256"
        }
      ],
      "name": "CharacterSold",
      "type": "event"
    },
    {
      "anonymous": false,
      "inputs": [
        {
          "indexed": true,
          "internalType": "address",
          "name": "previousOwner",
          "type": "address"
        },
        {
          "indexed": true,
          "internalType": "address",
          "name": "newOwner",
          "type": "address"
        }
      ],
      "name": "OwnershipTransferred",
      "type": "event"
    },
    {
      "anonymous": false,
      "inputs": [
        {
          "indexed": true,
          "internalType": "address",
          "name": "villageAddress",
          "type": "address"
        },
        {
          "indexed": false,
          "internalType": "string",
          "name": "oldMetadataURI",
          "type": "string"
        },
        {
          "indexed": false,
          "internalType": "string",
          "name": "newMetadataURI",
          "type": "string"
        },
        {
          "indexed": true,
          "internalType": "address",
          "name": "updater",
          "type": "address"
        },
        {
          "indexed": false,
          "internalType": "uint256",
          "name": "timestamp",
          "type": "uint256"
        }
      ],
      "name": "VillageMetadataUpdated",
      "type": "event"
    },
    {
      "anonymous": false,
      "inputs": [
        {
          "indexed": true,
          "internalType": "address",
          "name": "villageAddress",
          "type": "address"
        },
        {
          "indexed": true,
          "internalType": "address",
          "name": "previousOwner",
          "type": "address"
        },
        {
          "indexed": true,
          "internalType": "address",
          "name": "newOwner",
          "type": "address"
        },
        {
          "indexed": false,
          "internalType": "uint256",
          "name": "timestamp",
          "type": "uint256"
        }
      ],
      "name": "VillageOwnershipTransferred",
      "type": "event"
    },
    {
      "inputs": [
        {
          "internalType": "string",
          "name": "name",
          "type": "string"
        },
        {
          "internalType": "string",
          "name": "symbol",
          "type": "string"
        },
        {
          "internalType": "string",
          "name": "charMetadata",
          "type": "string"
        },
        {
          "internalType": "address[]",
          "name": "parents",
          "type": "address[]"
        }
      ],
      "name": "addCharacter",
      "outputs": [
        {
          "internalType": "address",
          "name": "",
          "type": "address"
        }
      ],
      "stateMutability": "nonpayable",
      "type": "function"
    },
    {
      "inputs": [
        {
          "internalType": "uint256",
          "name": "",
          "type": "uint256"
        }
      ],
      "name": "characters",
      "outputs": [
        {
          "internalType": "address",
          "name": "",
          "type": "address"
        }
      ],
      "stateMutability": "view",
      "type": "function"
    },
    {
      "inputs": [],
      "name": "metadataURI",
      "outputs": [
        {
          "internalType": "string",
          "name": "",
          "type": "string"
        }
      ],
      "stateMutability": "view",
      "type": "function"
    },
    {
      "inputs": [],
      "name": "nextCharacterId",
      "outputs": [
        {
          "internalType": "uint256",
          "name": "",
          "type": "uint256"
        }
      ],
      "stateMutability": "view",
      "type": "function"
    },
    {
      "inputs": [],
      "name": "owner",
      "outputs": [
        {
          "internalType": "address",
          "name": "",
          "type": "address"
        }
      ],
      "stateMutability": "view",
      "type": "function"
    },
    {
      "inputs": [],
      "name": "renounceOwnership",
      "outputs": [],
      "stateMutability": "nonpayable",
      "type": "function"
    },
    {
      "inputs": [
        {
          "internalType": "uint256",
          "name": "charId",
          "type": "uint256"
        },
        {
          "internalType": "address",
          "name": "to",
          "type": "address"
        }
      ],
      "name": "sellCharacter",
      "outputs": [],
      "stateMutability": "nonpayable",
      "type": "function"
    },
    {
      "inputs": [
        {
          "internalType": "address",
          "name": "newOwner",
          "type": "address"
        }
      ],
      "name": "transferOwnership",
      "outputs": [],
      "stateMutability": "nonpayable",
      "type": "function"
    },
    {
      "inputs": [
        {
          "internalType": "string",
          "name": "newMetadataURI",
          "type": "string"
        }
      ],
      "name": "updateMetadata",
      "outputs": [],
      "stateMutability": "nonpayable",
      "type": "function"
    }
  ],
  "bytecode": "0x608060405234801561001057600080fd5b50604051614d4e380380614d4e83398181016040528101906100329190610372565b80600073ffffffffffffffffffffffffffffffffffffffff168173ffffffffffffffffffffffffffffffffffffffff16036100a55760006040517f1e4fbdf700000000000000000000000000000000000000000000000000000000815260040161009c91906103dd565b60405180910390fd5b6100b4816100db60201b60201c565b5081600190816100c49190610619565b506100d4816100db60201b60201c565b50506106eb565b60008060009054906101000a900473ffffffffffffffffffffffffffffffffffffffff169050816000806101000a81548173ffffffffffffffffffffffffffffffffffffffff021916908373ffffffffffffffffffffffffffffffffffffffff1602179055508173ffffffffffffffffffffffffffffffffffffffff168173ffffffffffffffffffffffffffffffffffffffff167f8be0079c531659141344cd1fd0a4f28419497f9722a3daafe3b4186f6b6457e060405160405180910390a35050565b6000604051905090565b600080fd5b600080fd5b600080fd5b600080fd5b6000601f19601f8301169050919050565b7f4e487b7100000000000000000000000000000000000000000000000000000000600052604160045260246000fd5b610206826101bd565b810181811067ffffffffffffffff82111715610225576102246101ce565b5b80604052505050565b600061023861019f565b905061024482826101fd565b919050565b600067ffffffffffffffff821115610264576102636101ce565b5b61026d826101bd565b9050602081019050919050565b60005b8381101561029857808201518184015260208101905061027d565b60008484015250505050565b60006102b76102b284610249565b61022e565b9050828152602081018484840111156102d3576102d26101b8565b5b6102de84828561027a565b509392505050565b600082601f8301126102fb576102fa6101b3565b5b815161030b8482602086016102a4565b91505092915050565b600073ffffffffffffffffffffffffffffffffffffffff82169050919050565b600061033f82610314565b9050919050565b61034f81610334565b811461035a57600080fd5b50565b60008151905061036c81610346565b92915050565b60008060408385031215610389576103886101a9565b5b600083015167ffffffffffffffff8111156103a7576103a66101ae565b5b6103b3858286016102e6565b92505060206103c48582860161035d565b9150509250929050565b6103d781610334565b82525050565b60006020820190506103f260008301846103ce565b92915050565b600081519050919050565b7f4e487b7100000000000000000000000000000000000000000000000000000000600052602260045260246000fd5b6000600282049050600182168061044a57607f821691505b60208210810361045d5761045c610403565b5b50919050565b60008190508160005260206000209050919050565b60006020601f8301049050919050565b600082821b905092915050565b6000600883026104c57fffffffffffffffffffffffffffffffffffffffffffffffffffffffffffffffff82610488565b6104cf8683610488565b95508019841693508086168417925050509392505050565b6000819050919050565b6000819050919050565b600061051661051161050c846104e7565b6104f1565b6104e7565b9050919050565b6000819050919050565b610530836104fb565b61054461053c8261051d565b848454610495565b825550505050565b600090565b61055961054c565b610564818484610527565b505050565b5b818110156105885761057d600082610551565b60018101905061056a565b5050565b601f8211156105cd5761059e81610463565b6105a784610478565b810160208510156105b6578190505b6105ca6105c285610478565b830182610569565b50505b505050565b600082821c905092915050565b60006105f0600019846008026105d2565b1980831691505092915050565b600061060983836105df565b9150826002028217905092915050565b610622826103f8565b67ffffffffffffffff81111561063b5761063a6101ce565b5b6106458254610432565b61065082828561058c565b600060209050601f8311600181146106835760008415610671578287015190505b61067b85826105fd565b8655506106e3565b601f19841661069186610463565b60005b828110156106b957848901518255600182019150602085019450602081019050610694565b868310156106d657848901516106d2601f8916826105df565b8355505b6001600288020188555050505b505050505050565b614654806106fa6000396000f3fe608060405234801561001057600080fd5b50600436106100935760003560e01c80637e57751a116100665780637e57751a1461010e5780638da5cb5b1461012a578063918b5be114610148578063f2fde38b14610164578063fc5fceb51461018057610093565b806303ee438c146100985780634810bc59146100b6578063715018a6146100e657806376116d9f146100f0575b600080fd5b6100a06101b0565b6040516100ad91906109da565b60405180910390f35b6100d060048036038101906100cb9190610a46565b61023e565b6040516100dd9190610ab4565b60405180910390f35b6100ee610271565b005b6100f8610285565b6040516101059190610ade565b60405180910390f35b61012860048036038101906101239190610b25565b61028b565b005b610132610452565b60405161013f9190610ab4565b60405180910390f35b610162600480360381019061015d9190610c9a565b61047b565b005b61017e60048036038101906101799190610ce3565b61058f565b005b61019a60048036038101906101959190610dd8565b61062c565b6040516101a79190610ab4565b60405180910390f35b600180546101bd90610ede565b80601f01602080910402602001604051908101604052809291908181526020018280546101e990610ede565b80156102365780601f1061020b57610100808354040283529160200191610236565b820191906000526020600020905b81548152906001019060200180831161021957829003601f168201915b505050505081565b60036020528060005260406000206000915054906101000a900473ffffffffffffffffffffffffffffffffffffffff1681565b610279610764565b61028360006107eb565b565b60025481565b610293610764565b600073ffffffffffffffffffffffffffffffffffffffff166003600084815260200190815260200160002060009054906101000a900473ffffffffffffffffffffffffffffffffffffffff1673ffffffffffffffffffffffffffffffffffffffff1603610335576040517f08c379a000000000000000000000000000000000000000000000000000000000815260040161032c90610f5b565b60405180910390fd5b60006003600084815260200190815260200160002060009054906101000a900473ffffffffffffffffffffffffffffffffffffffff1690506000610377610452565b90508173ffffffffffffffffffffffffffffffffffffffff1663f2fde38b846040518263ffffffff1660e01b81526004016103b29190610ab4565b600060405180830381600087803b1580156103cc57600080fd5b505af11580156103e0573d6000803e3d6000fd5b505050508273ffffffffffffffffffffffffffffffffffffffff168173ffffffffffffffffffffffffffffffffffffffff16857f97c6412f54174d25c44e40ef5eb110aa7cce8ce5414d8616ca0cd90dba72695d8542604051610444929190610f7b565b60405180910390a450505050565b60008060009054906101000a900473ffffffffffffffffffffffffffffffffffffffff16905090565b610483610764565b60006001805461049290610ede565b80601f01602080910402602001604051908101604052809291908181526020018280546104be90610ede565b801561050b5780601f106104e05761010080835404028352916020019161050b565b820191906000526020600020905b8154815290600101906020018083116104ee57829003601f168201915b5050505050905081600190816105219190611150565b503373ffffffffffffffffffffffffffffffffffffffff163073ffffffffffffffffffffffffffffffffffffffff167fe2de9b6eebb01f1c5d11808c4cbfba2bfa16f731f4022e8cf6537b428d6f0c6483854260405161058393929190611222565b60405180910390a35050565b610597610764565b60006105a1610452565b90506105ac826108af565b8173ffffffffffffffffffffffffffffffffffffffff168173ffffffffffffffffffffffffffffffffffffffff163073ffffffffffffffffffffffffffffffffffffffff167f76c2640f35058fa2539bf93a7efca71e6a333f7f233cd64d25b9bca58c655e79426040516106209190610ade565b60405180910390a45050565b6000610636610764565b60006002600081548092919061064b90611296565b919050559050600086868630876040516106649061093d565b61067295949392919061139c565b604051809103906000f08015801561068e573d6000803e3d6000fd5b5090506000819050806003600085815260200190815260200160002060006101000a81548173ffffffffffffffffffffffffffffffffffffffff021916908373ffffffffffffffffffffffffffffffffffffffff1602179055503073ffffffffffffffffffffffffffffffffffffffff168173ffffffffffffffffffffffffffffffffffffffff16847f762cd3a5829bd8529b399d24d0e70689585af6d97c6d46473d1cb8553f4a44588b8b8b8b4260405161074e95949392919061140b565b60405180910390a4809350505050949350505050565b61076c610935565b73ffffffffffffffffffffffffffffffffffffffff1661078a610452565b73ffffffffffffffffffffffffffffffffffffffff16146107e9576107ad610935565b6040517f118cdaa70000000000000000000000000000000000000000000000000000000081526004016107e09190610ab4565b60405180910390fd5b565b60008060009054906101000a900473ffffffffffffffffffffffffffffffffffffffff169050816000806101000a81548173ffffffffffffffffffffffffffffffffffffffff021916908373ffffffffffffffffffffffffffffffffffffffff1602179055508173ffffffffffffffffffffffffffffffffffffffff168173ffffffffffffffffffffffffffffffffffffffff167f8be0079c531659141344cd1fd0a4f28419497f9722a3daafe3b4186f6b6457e060405160405180910390a35050565b6108b7610764565b600073ffffffffffffffffffffffffffffffffffffffff168173ffffffffffffffffffffffffffffffffffffffff16036109295760006040517f1e4fbdf70000000000000000000000000000000000000000000000000000000081526004016109209190610ab4565b60405180910390fd5b610932816107eb565b50565b600033905090565b6131a48061147b83390190565b600081519050919050565b600082825260208201905092915050565b60005b83811015610984578082015181840152602081019050610969565b60008484015250505050565b6000601f19601f8301169050919050565b60006109ac8261094a565b6109b68185610955565b93506109c6818560208601610966565b6109cf81610990565b840191505092915050565b600060208201905081810360008301526109f481846109a1565b905092915050565b6000604051905090565b600080fd5b600080fd5b6000819050919050565b610a2381610a10565b8114610a2e57600080fd5b50565b600081359050610a4081610a1a565b92915050565b600060208284031215610a5c57610a5b610a06565b5b6000610a6a84828501610a31565b91505092915050565b600073ffffffffffffffffffffffffffffffffffffffff82169050919050565b6000610a9e82610a73565b9050919050565b610aae81610a93565b82525050565b6000602082019050610ac96000830184610aa5565b92915050565b610ad881610a10565b82525050565b6000602082019050610af36000830184610acf565b92915050565b610b0281610a93565b8114610b0d57600080fd5b50565b600081359050610b1f81610af9565b92915050565b60008060408385031215610b3c57610b3b610a06565b5b6000610b4a85828601610a31565b9250506020610b5b85828601610b10565b9150509250929050565b600080fd5b600080fd5b7f4e487b7100000000000000000000000000000000000000000000000000000000600052604160045260246000fd5b610ba782610990565b810181811067ffffffffffffffff82111715610bc657610bc5610b6f565b5b80604052505050565b6000610bd96109fc565b9050610be58282610b9e565b919050565b600067ffffffffffffffff821115610c0557610c04610b6f565b5b610c0e82610990565b9050602081019050919050565b82818337600083830152505050565b6000610c3d610c3884610bea565b610bcf565b905082815260208101848484011115610c5957610c58610b6a565b5b610c64848285610c1b565b509392505050565b600082601f830112610c8157610c80610b65565b5b8135610c91848260208601610c2a565b91505092915050565b600060208284031215610cb057610caf610a06565b5b600082013567ffffffffffffffff811115610cce57610ccd610a0b565b5b610cda84828501610c6c565b91505092915050565b600060208284031215610cf957610cf8610a06565b5b6000610d0784828501610b10565b91505092915050565b600067ffffffffffffffff821115610d2b57610d2a610b6f565b5b602082029050602081019050919050565b600080fd5b6000610d54610d4f84610d10565b610bcf565b90508083825260208201905060208402830185811115610d7757610d76610d3c565b5b835b81811015610da05780610d8c8882610b10565b845260208401935050602081019050610d79565b5050509392505050565b600082601f830112610dbf57610dbe610b65565b5b8135610dcf848260208601610d41565b91505092915050565b60008060008060808587031215610df257610df1610a06565b5b600085013567ffffffffffffffff811115610e1057610e0f610a0b565b5b610e1c87828801610c6c565b945050602085013567ffffffffffffffff811115610e3d57610e3c610a0b565b5b610e4987828801610c6c565b935050604085013567ffffffffffffffff811115610e6a57610e69610a0b565b5b610e7687828801610c6c565b925050606085013567ffffffffffffffff811115610e9757610e96610a0b565b5b610ea387828801610daa565b91505092959194509250565b7f4e487b7100000000000000000000000000000000000000000000000000000000600052602260045260246000fd5b60006002820490506001821680610ef657607f821691505b602082108103610f0957610f08610eaf565b5b50919050565b7f43686172616374657220646f6573206e6f742065786973740000000000000000600082015250565b6000610f45601883610955565b9150610f5082610f0f565b602082019050919050565b60006020820190508181036000830152610f7481610f38565b9050919050565b6000604082019050610f906000830185610aa5565b610f9d6020830184610acf565b9392505050565b60008190508160005260206000209050919050565b60006020601f8301049050919050565b600082821b905092915050565b6000600883026110067fffffffffffffffffffffffffffffffffffffffffffffffffffffffffffffffff82610fc9565b6110108683610fc9565b95508019841693508086168417925050509392505050565b6000819050919050565b600061104d61104861104384610a10565b611028565b610a10565b9050919050565b6000819050919050565b61106783611032565b61107b61107382611054565b848454610fd6565b825550505050565b600090565b611090611083565b61109b81848461105e565b505050565b5b818110156110bf576110b4600082611088565b6001810190506110a1565b5050565b601f821115611104576110d581610fa4565b6110de84610fb9565b810160208510156110ed578190505b6111016110f985610fb9565b8301826110a0565b50505b505050565b600082821c905092915050565b600061112760001984600802611109565b1980831691505092915050565b60006111408383611116565b9150826002028217905092915050565b6111598261094a565b67ffffffffffffffff81111561117257611171610b6f565b5b61117c8254610ede565b6111878282856110c3565b600060209050601f8311600181146111ba57600084156111a8578287015190505b6111b28582611134565b86555061121a565b601f1984166111c886610fa4565b60005b828110156111f0578489015182556001820191506020850194506020810190506111cb565b8683101561120d5784890151611209601f891682611116565b8355505b6001600288020188555050505b505050505050565b6000606082019050818103600083015261123c81866109a1565b9050818103602083015261125081856109a1565b905061125f6040830184610acf565b949350505050565b7f4e487b7100000000000000000000000000000000000000000000000000000000600052601160045260246000fd5b60006112a182610a10565b91507fffffffffffffffffffffffffffffffffffffffffffffffffffffffffffffffff82036112d3576112d2611267565b5b600182019050919050565b600081519050919050565b600082825260208201905092915050565b6000819050602082019050919050565b61131381610a93565b82525050565b6000611325838361130a565b60208301905092915050565b6000602082019050919050565b6000611349826112de565b61135381856112e9565b935061135e836112fa565b8060005b8381101561138f5781516113768882611319565b975061138183611331565b925050600181019050611362565b5085935050505092915050565b600060a08201905081810360008301526113b681886109a1565b905081810360208301526113ca81876109a1565b905081810360408301526113de81866109a1565b90506113ed6060830185610aa5565b81810360808301526113ff818461133e565b90509695505050505050565b600060a082019050818103600083015261142581886109a1565b9050818103602083015261143981876109a1565b9050818103604083015261144d81866109a1565b90508181036060830152611461818561133e565b90506114706080830184610acf565b969550505050505056fe608060405234801561001057600080fd5b506040516131a43803806131a483398181016040528101906100329190610f7d565b33858581600090816100449190611289565b5080600190816100549190611289565b505050600073ffffffffffffffffffffffffffffffffffffffff168173ffffffffffffffffffffffffffffffffffffffff16036100c95760006040517f1e4fbdf70000000000000000000000000000000000000000000000000000000081526004016100c0919061136a565b60405180910390fd5b6100d88161013360201b60201c565b5060016007819055506100f3826007546101f960201b60201c565b82600890816101029190611289565b506101128261013360201b60201c565b8060099080519060200190610128929190610c3b565b5050505050506114fe565b6000600660009054906101000a900473ffffffffffffffffffffffffffffffffffffffff16905081600660006101000a81548173ffffffffffffffffffffffffffffffffffffffff021916908373ffffffffffffffffffffffffffffffffffffffff1602179055508173ffffffffffffffffffffffffffffffffffffffff168173ffffffffffffffffffffffffffffffffffffffff167f8be0079c531659141344cd1fd0a4f28419497f9722a3daafe3b4186f6b6457e060405160405180910390a35050565b61021982826040518060200160405280600081525061021d60201b60201c565b5050565b61022d838361025360201b60201c565b61024e61023e61035260201b60201c565b600085858561035a60201b60201c565b505050565b600073ffffffffffffffffffffffffffffffffffffffff168273ffffffffffffffffffffffffffffffffffffffff16036102c55760006040517f64a0ae920000000000000000000000000000000000000000000000000000000081526004016102bc919061136a565b60405180910390fd5b60006102d98383600061050b60201b60201c565b9050600073ffffffffffffffffffffffffffffffffffffffff168173ffffffffffffffffffffffffffffffffffffffff161461034d5760006040517f73c6ac6e000000000000000000000000000000000000000000000000000000008152600401610344919061136a565b60405180910390fd5b505050565b600033905090565b60008373ffffffffffffffffffffffffffffffffffffffff163b1115610504578273ffffffffffffffffffffffffffffffffffffffff1663150b7a02868685856040518563ffffffff1660e01b81526004016103b994939291906113e9565b6020604051808303816000875af19250505080156103f557506040513d601f19601f820116820180604052508101906103f2919061148d565b60015b610479573d8060008114610425576040519150601f19603f3d011682016040523d82523d6000602084013e61042a565b606091505b50600081510361047157836040517f64a0ae92000000000000000000000000000000000000000000000000000000008152600401610468919061136a565b60405180910390fd5b805160208201fd5b63150b7a0260e01b7bffffffffffffffffffffffffffffffffffffffffffffffffffffffff1916817bffffffffffffffffffffffffffffffffffffffffffffffffffffffff19161461050257836040517f64a0ae920000000000000000000000000000000000000000000000000000000081526004016104f9919061136a565b60405180910390fd5b505b5050505050565b60008061051d8461073760201b60201c565b9050600073ffffffffffffffffffffffffffffffffffffffff168373ffffffffffffffffffffffffffffffffffffffff16146105655761056481848661077460201b60201c565b5b600073ffffffffffffffffffffffffffffffffffffffff168173ffffffffffffffffffffffffffffffffffffffff16146105fc576105ad60008560008061083e60201b60201c565b6001600360008373ffffffffffffffffffffffffffffffffffffffff1673ffffffffffffffffffffffffffffffffffffffff168152602001908152602001600020600082825403925050819055505b600073ffffffffffffffffffffffffffffffffffffffff168573ffffffffffffffffffffffffffffffffffffffff161461067f576001600360008773ffffffffffffffffffffffffffffffffffffffff1673ffffffffffffffffffffffffffffffffffffffff168152602001908152602001600020600082825401925050819055505b846002600086815260200190815260200160002060006101000a81548173ffffffffffffffffffffffffffffffffffffffff021916908373ffffffffffffffffffffffffffffffffffffffff160217905550838573ffffffffffffffffffffffffffffffffffffffff168273ffffffffffffffffffffffffffffffffffffffff167fddf252ad1be2c89b69c2b068fc378daa952ba7f163c4a11628f55a4df523b3ef60405160405180910390a4809150509392505050565b60006002600083815260200190815260200160002060009054906101000a900473ffffffffffffffffffffffffffffffffffffffff169050919050565b610785838383610a0f60201b60201c565b61083957600073ffffffffffffffffffffffffffffffffffffffff168373ffffffffffffffffffffffffffffffffffffffff16036107fa57806040517f7e2732890000000000000000000000000000000000000000000000000000000081526004016107f191906114ba565b60405180910390fd5b81816040517f177e802f0000000000000000000000000000000000000000000000000000000081526004016108309291906114d5565b60405180910390fd5b505050565b80806108775750600073ffffffffffffffffffffffffffffffffffffffff168273ffffffffffffffffffffffffffffffffffffffff1614155b156109b757600061088d84610adc60201b60201c565b9050600073ffffffffffffffffffffffffffffffffffffffff168373ffffffffffffffffffffffffffffffffffffffff16141580156108f857508273ffffffffffffffffffffffffffffffffffffffff168173ffffffffffffffffffffffffffffffffffffffff1614155b8015610911575061090f8184610b6a60201b60201c565b155b1561095357826040517fa9fbf51f00000000000000000000000000000000000000000000000000000000815260040161094a919061136a565b60405180910390fd5b81156109b557838573ffffffffffffffffffffffffffffffffffffffff168273ffffffffffffffffffffffffffffffffffffffff167f8c5be1e5ebec7d5bd14f71427d1e84f3dd0314c0f7b2291e5b200ac8c7c3b92560405160405180910390a45b505b836004600085815260200190815260200160002060006101000a81548173ffffffffffffffffffffffffffffffffffffffff021916908373ffffffffffffffffffffffffffffffffffffffff16021790555050505050565b60008073ffffffffffffffffffffffffffffffffffffffff168373ffffffffffffffffffffffffffffffffffffffff1614158015610ad357508273ffffffffffffffffffffffffffffffffffffffff168473ffffffffffffffffffffffffffffffffffffffff161480610a8e5750610a8d8484610b6a60201b60201c565b5b80610ad257508273ffffffffffffffffffffffffffffffffffffffff16610aba83610bfe60201b60201c565b73ffffffffffffffffffffffffffffffffffffffff16145b5b90509392505050565b600080610aee8361073760201b60201c565b9050600073ffffffffffffffffffffffffffffffffffffffff168173ffffffffffffffffffffffffffffffffffffffff1603610b6157826040517f7e273289000000000000000000000000000000000000000000000000000000008152600401610b5891906114ba565b60405180910390fd5b80915050919050565b6000600560008473ffffffffffffffffffffffffffffffffffffffff1673ffffffffffffffffffffffffffffffffffffffff16815260200190815260200160002060008373ffffffffffffffffffffffffffffffffffffffff1673ffffffffffffffffffffffffffffffffffffffff16815260200190815260200160002060009054906101000a900460ff16905092915050565b60006004600083815260200190815260200160002060009054906101000a900473ffffffffffffffffffffffffffffffffffffffff169050919050565b828054828255906000526020600020908101928215610cb4579160200282015b82811115610cb35782518260006101000a81548173ffffffffffffffffffffffffffffffffffffffff021916908373ffffffffffffffffffffffffffffffffffffffff16021790555091602001919060010190610c5b565b5b509050610cc19190610cc5565b5090565b5b80821115610cde576000816000905550600101610cc6565b5090565b6000604051905090565b600080fd5b600080fd5b600080fd5b600080fd5b6000601f19601f8301169050919050565b7f4e487b7100000000000000000000000000000000000000000000000000000000600052604160045260246000fd5b610d4982610d00565b810181811067ffffffffffffffff82111715610d6857610d67610d11565b5b80604052505050565b6000610d7b610ce2565b9050610d878282610d40565b919050565b600067ffffffffffffffff821115610da757610da6610d11565b5b610db082610d00565b9050602081019050919050565b60005b83811015610ddb578082015181840152602081019050610dc0565b60008484015250505050565b6000610dfa610df584610d8c565b610d71565b905082815260208101848484011115610e1657610e15610cfb565b5b610e21848285610dbd565b509392505050565b600082601f830112610e3e57610e3d610cf6565b5b8151610e4e848260208601610de7565b91505092915050565b600073ffffffffffffffffffffffffffffffffffffffff82169050919050565b6000610e8282610e57565b9050919050565b610e9281610e77565b8114610e9d57600080fd5b50565b600081519050610eaf81610e89565b92915050565b600067ffffffffffffffff821115610ed057610ecf610d11565b5b602082029050602081019050919050565b600080fd5b6000610ef9610ef484610eb5565b610d71565b90508083825260208201905060208402830185811115610f1c57610f1b610ee1565b5b835b81811015610f455780610f318882610ea0565b845260208401935050602081019050610f1e565b5050509392505050565b600082601f830112610f6457610f63610cf6565b5b8151610f74848260208601610ee6565b91505092915050565b600080600080600060a08688031215610f9957610f98610cec565b5b600086015167ffffffffffffffff811115610fb757610fb6610cf1565b5b610fc388828901610e29565b955050602086015167ffffffffffffffff811115610fe457610fe3610cf1565b5b610ff088828901610e29565b945050604086015167ffffffffffffffff81111561101157611010610cf1565b5b61101d88828901610e29565b935050606061102e88828901610ea0565b925050608086015167ffffffffffffffff81111561104f5761104e610cf1565b5b61105b88828901610f4f565b9150509295509295909350565b600081519050919050565b7f4e487b7100000000000000000000000000000000000000000000000000000000600052602260045260246000fd5b600060028204905060018216806110ba57607f821691505b6020821081036110cd576110cc611073565b5b50919050565b60008190508160005260206000209050919050565b60006020601f8301049050919050565b600082821b905092915050565b6000600883026111357fffffffffffffffffffffffffffffffffffffffffffffffffffffffffffffffff826110f8565b61113f86836110f8565b95508019841693508086168417925050509392505050565b6000819050919050565b6000819050919050565b600061118661118161117c84611157565b611161565b611157565b9050919050565b6000819050919050565b6111a08361116b565b6111b46111ac8261118d565b848454611105565b825550505050565b600090565b6111c96111bc565b6111d4818484611197565b505050565b5b818110156111f8576111ed6000826111c1565b6001810190506111da565b5050565b601f82111561123d5761120e816110d3565b611217846110e8565b81016020851015611226578190505b61123a611232856110e8565b8301826111d9565b50505b505050565b600082821c905092915050565b600061126060001984600802611242565b1980831691505092915050565b6000611279838361124f565b9150826002028217905092915050565b61129282611068565b67ffffffffffffffff8111156112ab576112aa610d11565b5b6112b582546110a2565b6112c08282856111fc565b600060209050601f8311600181146112f357600084156112e1578287015190505b6112eb858261126d565b865550611353565b601f198416611301866110d3565b60005b8281101561132957848901518255600182019150602085019450602081019050611304565b868310156113465784890151611342601f89168261124f565b8355505b6001600288020188555050505b505050505050565b61136481610e77565b82525050565b600060208201905061137f600083018461135b565b92915050565b61138e81611157565b82525050565b600081519050919050565b600082825260208201905092915050565b60006113bb82611394565b6113c5818561139f565b93506113d5818560208601610dbd565b6113de81610d00565b840191505092915050565b60006080820190506113fe600083018761135b565b61140b602083018661135b565b6114186040830185611385565b818103606083015261142a81846113b0565b905095945050505050565b60007fffffffff0000000000000000000000000000000000000000000000000000000082169050919050565b61146a81611435565b811461147557600080fd5b50565b60008151905061148781611461565b92915050565b6000602082840312156114a3576114a2610cec565b5b60006114b184828501611478565b91505092915050565b60006020820190506114cf6000830184611385565b92915050565b60006040820190506114ea600083018561135b565b6114f76020830184611385565b9392505050565b611c978061150d6000396000f3fe608060405234801561001057600080fd5b506004361061010b5760003560e01c806370a08231116100a2578063a22cb46511610071578063a22cb465146102a6578063b88d4fde146102c2578063c87b56dd146102de578063e985e9c51461030e578063f2fde38b1461033e5761010b565b806370a0823114610230578063715018a6146102605780638da5cb5b1461026a57806395d89b41146102885761010b565b806317d70f7c116100de57806317d70f7c146101aa57806323b872dd146101c857806342842e0e146101e45780636352211e146102005761010b565b806301ffc9a71461011057806306fdde0314610140578063081812fc1461015e578063095ea7b31461018e575b600080fd5b61012a60048036038101906101259190611570565b61035a565b60405161013791906115b8565b60405180910390f35b61014861043c565b6040516101559190611663565b60405180910390f35b610178600480360381019061017391906116bb565b6104ce565b6040516101859190611729565b60405180910390f35b6101a860048036038101906101a39190611770565b6104ea565b005b6101b2610500565b6040516101bf91906117bf565b60405180910390f35b6101e260048036038101906101dd91906117da565b610506565b005b6101fe60048036038101906101f991906117da565b610608565b005b61021a600480360381019061021591906116bb565b610628565b6040516102279190611729565b60405180910390f35b61024a6004803603810190610245919061182d565b61063a565b60405161025791906117bf565b60405180910390f35b6102686106f4565b005b610272610708565b60405161027f9190611729565b60405180910390f35b610290610732565b60405161029d9190611663565b60405180910390f35b6102c060048036038101906102bb9190611886565b6107c4565b005b6102dc60048036038101906102d791906119fb565b6107da565b005b6102f860048036038101906102f391906116bb565b6107ff565b6040516103059190611663565b60405180910390f35b61032860048036038101906103239190611a7e565b610893565b60405161033591906115b8565b60405180910390f35b6103586004803603810190610353919061182d565b610927565b005b60007f80ac58cd000000000000000000000000000000000000000000000000000000007bffffffffffffffffffffffffffffffffffffffffffffffffffffffff1916827bffffffffffffffffffffffffffffffffffffffffffffffffffffffff1916148061042557507f5b5e139f000000000000000000000000000000000000000000000000000000007bffffffffffffffffffffffffffffffffffffffffffffffffffffffff1916827bffffffffffffffffffffffffffffffffffffffffffffffffffffffff1916145b806104355750610434826109ad565b5b9050919050565b60606000805461044b90611aed565b80601f016020809104026020016040519081016040528092919081815260200182805461047790611aed565b80156104c45780601f10610499576101008083540402835291602001916104c4565b820191906000526020600020905b8154815290600101906020018083116104a757829003601f168201915b5050505050905090565b60006104d982610a17565b506104e382610a9f565b9050919050565b6104fc82826104f7610adc565b610ae4565b5050565b60075481565b600073ffffffffffffffffffffffffffffffffffffffff168273ffffffffffffffffffffffffffffffffffffffff16036105785760006040517f64a0ae9200000000000000000000000000000000000000000000000000000000815260040161056f9190611729565b60405180910390fd5b600061058c8383610587610adc565b610af6565b90508373ffffffffffffffffffffffffffffffffffffffff168173ffffffffffffffffffffffffffffffffffffffff1614610602578382826040517f64283d7b0000000000000000000000000000000000000000000000000000000081526004016105f993929190611b1e565b60405180910390fd5b50505050565b610623838383604051806020016040528060008152506107da565b505050565b600061063382610a17565b9050919050565b60008073ffffffffffffffffffffffffffffffffffffffff168273ffffffffffffffffffffffffffffffffffffffff16036106ad5760006040517f89c62b640000000000000000000000000000000000000000000000000000000081526004016106a49190611729565b60405180910390fd5b600360008373ffffffffffffffffffffffffffffffffffffffff1673ffffffffffffffffffffffffffffffffffffffff168152602001908152602001600020549050919050565b6106fc610d10565b6107066000610d97565b565b6000600660009054906101000a900473ffffffffffffffffffffffffffffffffffffffff16905090565b60606001805461074190611aed565b80601f016020809104026020016040519081016040528092919081815260200182805461076d90611aed565b80156107ba5780601f1061078f576101008083540402835291602001916107ba565b820191906000526020600020905b81548152906001019060200180831161079d57829003601f168201915b5050505050905090565b6107d66107cf610adc565b8383610e5d565b5050565b6107e5848484610506565b6107f96107f0610adc565b85858585610fcc565b50505050565b60606008805461080e90611aed565b80601f016020809104026020016040519081016040528092919081815260200182805461083a90611aed565b80156108875780601f1061085c57610100808354040283529160200191610887565b820191906000526020600020905b81548152906001019060200180831161086a57829003601f168201915b50505050509050919050565b6000600560008473ffffffffffffffffffffffffffffffffffffffff1673ffffffffffffffffffffffffffffffffffffffff16815260200190815260200160002060008373ffffffffffffffffffffffffffffffffffffffff1673ffffffffffffffffffffffffffffffffffffffff16815260200190815260200160002060009054906101000a900460ff16905092915050565b61092f610d10565b600073ffffffffffffffffffffffffffffffffffffffff168173ffffffffffffffffffffffffffffffffffffffff16036109a15760006040517f1e4fbdf70000000000000000000000000000000000000000000000000000000081526004016109989190611729565b60405180910390fd5b6109aa81610d97565b50565b60007f01ffc9a7000000000000000000000000000000000000000000000000000000007bffffffffffffffffffffffffffffffffffffffffffffffffffffffff1916827bffffffffffffffffffffffffffffffffffffffffffffffffffffffff1916149050919050565b600080610a238361117d565b9050600073ffffffffffffffffffffffffffffffffffffffff168173ffffffffffffffffffffffffffffffffffffffff1603610a9657826040517f7e273289000000000000000000000000000000000000000000000000000000008152600401610a8d91906117bf565b60405180910390fd5b80915050919050565b60006004600083815260200190815260200160002060009054906101000a900473ffffffffffffffffffffffffffffffffffffffff169050919050565b600033905090565b610af183838360016111ba565b505050565b600080610b028461117d565b9050600073ffffffffffffffffffffffffffffffffffffffff168373ffffffffffffffffffffffffffffffffffffffff1614610b4457610b4381848661137f565b5b600073ffffffffffffffffffffffffffffffffffffffff168173ffffffffffffffffffffffffffffffffffffffff1614610bd557610b866000856000806111ba565b6001600360008373ffffffffffffffffffffffffffffffffffffffff1673ffffffffffffffffffffffffffffffffffffffff168152602001908152602001600020600082825403925050819055505b600073ffffffffffffffffffffffffffffffffffffffff168573ffffffffffffffffffffffffffffffffffffffff1614610c58576001600360008773ffffffffffffffffffffffffffffffffffffffff1673ffffffffffffffffffffffffffffffffffffffff168152602001908152602001600020600082825401925050819055505b846002600086815260200190815260200160002060006101000a81548173ffffffffffffffffffffffffffffffffffffffff021916908373ffffffffffffffffffffffffffffffffffffffff160217905550838573ffffffffffffffffffffffffffffffffffffffff168273ffffffffffffffffffffffffffffffffffffffff167fddf252ad1be2c89b69c2b068fc378daa952ba7f163c4a11628f55a4df523b3ef60405160405180910390a4809150509392505050565b610d18610adc565b73ffffffffffffffffffffffffffffffffffffffff16610d36610708565b73ffffffffffffffffffffffffffffffffffffffff1614610d9557610d59610adc565b6040517f118cdaa7000000000000000000000000000000000000000000000000000000008152600401610d8c9190611729565b60405180910390fd5b565b6000600660009054906101000a900473ffffffffffffffffffffffffffffffffffffffff16905081600660006101000a81548173ffffffffffffffffffffffffffffffffffffffff021916908373ffffffffffffffffffffffffffffffffffffffff1602179055508173ffffffffffffffffffffffffffffffffffffffff168173ffffffffffffffffffffffffffffffffffffffff167f8be0079c531659141344cd1fd0a4f28419497f9722a3daafe3b4186f6b6457e060405160405180910390a35050565b600073ffffffffffffffffffffffffffffffffffffffff168273ffffffffffffffffffffffffffffffffffffffff1603610ece57816040517f5b08ba18000000000000000000000000000000000000000000000000000000008152600401610ec59190611729565b60405180910390fd5b80600560008573ffffffffffffffffffffffffffffffffffffffff1673ffffffffffffffffffffffffffffffffffffffff16815260200190815260200160002060008473ffffffffffffffffffffffffffffffffffffffff1673ffffffffffffffffffffffffffffffffffffffff16815260200190815260200160002060006101000a81548160ff0219169083151502179055508173ffffffffffffffffffffffffffffffffffffffff168373ffffffffffffffffffffffffffffffffffffffff167f17307eab39ab6107e8899845ad3d59bd9653f200f220920489ca2b5937696c3183604051610fbf91906115b8565b60405180910390a3505050565b60008373ffffffffffffffffffffffffffffffffffffffff163b1115611176578273ffffffffffffffffffffffffffffffffffffffff1663150b7a02868685856040518563ffffffff1660e01b815260040161102b9493929190611baa565b6020604051808303816000875af192505050801561106757506040513d601f19601f820116820180604052508101906110649190611c0b565b60015b6110eb573d8060008114611097576040519150601f19603f3d011682016040523d82523d6000602084013e61109c565b606091505b5060008151036110e357836040517f64a0ae920000000000000000000000000000000000000000000000000000000081526004016110da9190611729565b60405180910390fd5b805160208201fd5b63150b7a0260e01b7bffffffffffffffffffffffffffffffffffffffffffffffffffffffff1916817bffffffffffffffffffffffffffffffffffffffffffffffffffffffff19161461117457836040517f64a0ae9200000000000000000000000000000000000000000000000000000000815260040161116b9190611729565b60405180910390fd5b505b5050505050565b60006002600083815260200190815260200160002060009054906101000a900473ffffffffffffffffffffffffffffffffffffffff169050919050565b80806111f35750600073ffffffffffffffffffffffffffffffffffffffff168273ffffffffffffffffffffffffffffffffffffffff1614155b1561132757600061120384610a17565b9050600073ffffffffffffffffffffffffffffffffffffffff168373ffffffffffffffffffffffffffffffffffffffff161415801561126e57508273ffffffffffffffffffffffffffffffffffffffff168173ffffffffffffffffffffffffffffffffffffffff1614155b8015611281575061127f8184610893565b155b156112c357826040517fa9fbf51f0000000000000000000000000000000000000000000000000000000081526004016112ba9190611729565b60405180910390fd5b811561132557838573ffffffffffffffffffffffffffffffffffffffff168273ffffffffffffffffffffffffffffffffffffffff167f8c5be1e5ebec7d5bd14f71427d1e84f3dd0314c0f7b2291e5b200ac8c7c3b92560405160405180910390a45b505b836004600085815260200190815260200160002060006101000a81548173ffffffffffffffffffffffffffffffffffffffff021916908373ffffffffffffffffffffffffffffffffffffffff16021790555050505050565b61138a838383611443565b61143e57600073ffffffffffffffffffffffffffffffffffffffff168373ffffffffffffffffffffffffffffffffffffffff16036113ff57806040517f7e2732890000000000000000000000000000000000000000000000000000000081526004016113f691906117bf565b60405180910390fd5b81816040517f177e802f000000000000000000000000000000000000000000000000000000008152600401611435929190611c38565b60405180910390fd5b505050565b60008073ffffffffffffffffffffffffffffffffffffffff168373ffffffffffffffffffffffffffffffffffffffff16141580156114fb57508273ffffffffffffffffffffffffffffffffffffffff168473ffffffffffffffffffffffffffffffffffffffff1614806114bc57506114bb8484610893565b5b806114fa57508273ffffffffffffffffffffffffffffffffffffffff166114e283610a9f565b73ffffffffffffffffffffffffffffffffffffffff16145b5b90509392505050565b6000604051905090565b600080fd5b600080fd5b60007fffffffff0000000000000000000000000000000000000000000000000000000082169050919050565b61154d81611518565b811461155857600080fd5b50565b60008135905061156a81611544565b92915050565b6000602082840312156115865761158561150e565b5b60006115948482850161155b565b91505092915050565b60008115159050919050565b6115b28161159d565b82525050565b60006020820190506115cd60008301846115a9565b92915050565b600081519050919050565b600082825260208201905092915050565b60005b8381101561160d5780820151818401526020810190506115f2565b60008484015250505050565b6000601f19601f8301169050919050565b6000611635826115d3565b61163f81856115de565b935061164f8185602086016115ef565b61165881611619565b840191505092915050565b6000602082019050818103600083015261167d818461162a565b905092915050565b6000819050919050565b61169881611685565b81146116a357600080fd5b50565b6000813590506116b58161168f565b92915050565b6000602082840312156116d1576116d061150e565b5b60006116df848285016116a6565b91505092915050565b600073ffffffffffffffffffffffffffffffffffffffff82169050919050565b6000611713826116e8565b9050919050565b61172381611708565b82525050565b600060208201905061173e600083018461171a565b92915050565b61174d81611708565b811461175857600080fd5b50565b60008135905061176a81611744565b92915050565b600080604083850312156117875761178661150e565b5b60006117958582860161175b565b92505060206117a6858286016116a6565b9150509250929050565b6117b981611685565b82525050565b60006020820190506117d460008301846117b0565b92915050565b6000806000606084860312156117f3576117f261150e565b5b60006118018682870161175b565b93505060206118128682870161175b565b9250506040611823868287016116a6565b9150509250925092565b6000602082840312156118435761184261150e565b5b60006118518482850161175b565b91505092915050565b6118638161159d565b811461186e57600080fd5b50565b6000813590506118808161185a565b92915050565b6000806040838503121561189d5761189c61150e565b5b60006118ab8582860161175b565b92505060206118bc85828601611871565b9150509250929050565b600080fd5b600080fd5b7f4e487b7100000000000000000000000000000000000000000000000000000000600052604160045260246000fd5b61190882611619565b810181811067ffffffffffffffff82111715611927576119266118d0565b5b80604052505050565b600061193a611504565b905061194682826118ff565b919050565b600067ffffffffffffffff821115611966576119656118d0565b5b61196f82611619565b9050602081019050919050565b82818337600083830152505050565b600061199e6119998461194b565b611930565b9050828152602081018484840111156119ba576119b96118cb565b5b6119c584828561197c565b509392505050565b600082601f8301126119e2576119e16118c6565b5b81356119f284826020860161198b565b91505092915050565b60008060008060808587031215611a1557611a1461150e565b5b6000611a238782880161175b565b9450506020611a348782880161175b565b9350506040611a45878288016116a6565b925050606085013567ffffffffffffffff811115611a6657611a65611513565b5b611a72878288016119cd565b91505092959194509250565b60008060408385031215611a9557611a9461150e565b5b6000611aa38582860161175b565b9250506020611ab48582860161175b565b9150509250929050565b7f4e487b7100000000000000000000000000000000000000000000000000000000600052602260045260246000fd5b60006002820490506001821680611b0557607f821691505b602082108103611b1857611b17611abe565b5b50919050565b6000606082019050611b33600083018661171a565b611b4060208301856117b0565b611b4d604083018461171a565b949350505050565b600081519050919050565b600082825260208201905092915050565b6000611b7c82611b55565b611b868185611b60565b9350611b968185602086016115ef565b611b9f81611619565b840191505092915050565b6000608082019050611bbf600083018761171a565b611bcc602083018661171a565b611bd960408301856117b0565b8181036060830152611beb8184611b71565b905095945050505050565b600081519050611c0581611544565b92915050565b600060208284031215611c2157611c2061150e565b5b6000611c2f84828501611bf6565b91505092915050565b6000604082019050611c4d600083018561171a565b611c5a60208301846117b0565b939250505056fea2646970667358221220024c779726a2612450765acf00f17ffa75054b8fd7fcba75fdc4e7619528b10464736f6c634300081c0033a26469706673582212204334738690ae99e3f356f7f319899439ec3cca8444f6c3fdfc3f3f22e7e51ab064736f6c634300081c0033",
  "linkReferences": {},
  "deployedLinkReferences": {}
}